{
  "contractName": "CryptoDebitCard",
  "abi": [
    {
      "inputs": [],
      "stateMutability": "nonpayable",
      "type": "constructor"
    },
    {
      "inputs": [],
      "name": "EnforcedPause",
      "type": "error"
    },
    {
      "inputs": [],
      "name": "ExpectedPause",
      "type": "error"
    },
    {
      "inputs": [
        {
          "internalType": "address",
          "name": "owner",
          "type": "address"
        }
      ],
      "name": "OwnableInvalidOwner",
      "type": "error"
    },
    {
      "inputs": [
        {
          "internalType": "address",
          "name": "account",
          "type": "address"
        }
      ],
      "name": "OwnableUnauthorizedAccount",
      "type": "error"
    },
    {
      "inputs": [],
      "name": "ReentrancyGuardReentrantCall",
      "type": "error"
    },
    {
      "anonymous": false,
      "inputs": [
        {
          "indexed": true,
          "internalType": "address",
          "name": "userAddress",
          "type": "address"
        },
        {
          "indexed": false,
          "internalType": "uint256",
          "name": "newFiatBalance",
          "type": "uint256"
        },
        {
          "indexed": false,
          "internalType": "uint256",
          "name": "newCryptoBalance",
          "type": "uint256"
        }
      ],
      "name": "BalanceUpdated",
      "type": "event"
    },
    {
      "anonymous": false,
      "inputs": [
        {
          "indexed": true,
          "internalType": "address",
          "name": "userAddress",
          "type": "address"
        },
        {
          "indexed": false,
          "internalType": "uint256",
          "name": "cryptoAmount",
          "type": "uint256"
        },
        {
          "indexed": false,
          "internalType": "uint256",
          "name": "fiatAmount",
          "type": "uint256"
        }
      ],
      "name": "CryptoDeposited",
      "type": "event"
    },
    {
      "anonymous": false,
      "inputs": [
        {
          "indexed": true,
          "internalType": "address",
          "name": "userAddress",
          "type": "address"
        },
        {
          "indexed": false,
          "internalType": "uint256",
          "name": "cryptoAmount",
          "type": "uint256"
        },
        {
          "indexed": false,
          "internalType": "uint256",
          "name": "fiatAmount",
          "type": "uint256"
        }
      ],
      "name": "CryptoWithdrawn",
      "type": "event"
    },
    {
      "anonymous": false,
      "inputs": [
        {
          "indexed": true,
          "internalType": "address",
          "name": "previousOwner",
          "type": "address"
        },
        {
          "indexed": true,
          "internalType": "address",
          "name": "newOwner",
          "type": "address"
        }
      ],
      "name": "OwnershipTransferred",
      "type": "event"
    },
    {
      "anonymous": false,
      "inputs": [
        {
          "indexed": false,
          "internalType": "address",
          "name": "account",
          "type": "address"
        }
      ],
      "name": "Paused",
      "type": "event"
    },
    {
      "anonymous": false,
      "inputs": [
        {
          "indexed": false,
          "internalType": "address",
          "name": "account",
          "type": "address"
        }
      ],
      "name": "Unpaused",
      "type": "event"
    },
    {
      "inputs": [],
      "name": "ETH_USD_PRICE",
      "outputs": [
        {
          "internalType": "uint256",
          "name": "",
          "type": "uint256"
        }
      ],
      "stateMutability": "view",
      "type": "function",
      "constant": true
    },
    {
      "inputs": [],
      "name": "owner",
      "outputs": [
        {
          "internalType": "address",
          "name": "",
          "type": "address"
        }
      ],
      "stateMutability": "view",
      "type": "function",
      "constant": true
    },
    {
      "inputs": [],
      "name": "paused",
      "outputs": [
        {
          "internalType": "bool",
          "name": "",
          "type": "bool"
        }
      ],
      "stateMutability": "view",
      "type": "function",
      "constant": true
    },
    {
      "inputs": [],
      "name": "renounceOwnership",
      "outputs": [],
      "stateMutability": "nonpayable",
      "type": "function"
    },
    {
      "inputs": [
        {
          "internalType": "address",
          "name": "newOwner",
          "type": "address"
        }
      ],
      "name": "transferOwnership",
      "outputs": [],
      "stateMutability": "nonpayable",
      "type": "function"
    },
    {
      "inputs": [
        {
          "internalType": "address",
          "name": "",
          "type": "address"
        }
      ],
      "name": "users",
      "outputs": [
        {
          "internalType": "uint256",
          "name": "fiatBalance",
          "type": "uint256"
        },
        {
          "internalType": "address",
          "name": "userAddress",
          "type": "address"
        }
      ],
      "stateMutability": "view",
      "type": "function",
      "constant": true
    },
    {
      "inputs": [],
      "name": "getUserDetails",
      "outputs": [
        {
          "internalType": "address",
          "name": "userAddress",
          "type": "address"
        },
        {
          "internalType": "uint256",
          "name": "fiatBalance",
          "type": "uint256"
        },
        {
          "internalType": "uint256",
          "name": "cryptoBalance",
          "type": "uint256"
        }
      ],
      "stateMutability": "view",
      "type": "function",
      "constant": true
    },
    {
      "inputs": [
        {
          "internalType": "uint256",
          "name": "_dollarAmount",
          "type": "uint256"
        }
      ],
      "name": "calculateRequiredWei",
      "outputs": [
        {
          "internalType": "uint256",
          "name": "",
          "type": "uint256"
        }
      ],
      "stateMutability": "pure",
      "type": "function",
      "constant": true
    },
    {
      "inputs": [
        {
          "internalType": "uint256",
          "name": "_dollarAmount",
          "type": "uint256"
        }
      ],
      "name": "depositCrypto",
      "outputs": [],
      "stateMutability": "payable",
      "type": "function",
      "payable": true
    },
    {
      "inputs": [],
      "name": "getContractBalance",
      "outputs": [
        {
          "internalType": "uint256",
          "name": "",
          "type": "uint256"
        }
      ],
      "stateMutability": "view",
      "type": "function",
      "constant": true
    },
    {
      "inputs": [],
      "name": "pause",
      "outputs": [],
      "stateMutability": "nonpayable",
      "type": "function"
    },
    {
      "inputs": [],
      "name": "unpause",
      "outputs": [],
      "stateMutability": "nonpayable",
      "type": "function"
    },
    {
      "inputs": [
        {
          "internalType": "uint256",
          "name": "_dollarAmount",
          "type": "uint256"
        }
      ],
      "name": "withdrawCrypto",
      "outputs": [],
      "stateMutability": "nonpayable",
      "type": "function"
    }
  ],
  "bytecode": "0x608060405234801562000010575f80fd5b50335f73ffffffffffffffffffffffffffffffffffffffff168173ffffffffffffffffffffffffffffffffffffffff160362000085575f6040517f1e4fbdf70000000000000000000000000000000000000000000000000000000081526004016200007c9190620001c1565b60405180910390fd5b6200009681620000bd60201b60201c565b50600180819055505f60025f6101000a81548160ff021916908315150217905550620001dc565b5f805f9054906101000a900473ffffffffffffffffffffffffffffffffffffffff169050815f806101000a81548173ffffffffffffffffffffffffffffffffffffffff021916908373ffffffffffffffffffffffffffffffffffffffff1602179055508173ffffffffffffffffffffffffffffffffffffffff168173ffffffffffffffffffffffffffffffffffffffff167f8be0079c531659141344cd1fd0a4f28419497f9722a3daafe3b4186f6b6457e060405160405180910390a35050565b5f73ffffffffffffffffffffffffffffffffffffffff82169050919050565b5f620001a9826200017e565b9050919050565b620001bb816200019d565b82525050565b5f602082019050620001d65f830184620001b0565b92915050565b61127480620001ea5f395ff3fe6080604052600436106100c1575f3560e01c80637d16de941161007e5780638da5cb5b116100585780638da5cb5b14610205578063942886be1461022f578063a87430ba1461025b578063f2fde38b14610298576100c1565b80637d16de94146101ab5780638456cb59146101d357806385d3f81d146101e9576100c1565b80632abd1e46146100c55780633f4ba83a146101015780635c975abb1461011757806362300732146101415780636f9fb98a1461016b578063715018a614610195575b5f80fd5b3480156100d0575f80fd5b506100eb60048036038101906100e69190610cfe565b6102c0565b6040516100f89190610d38565b60405180910390f35b34801561010c575f80fd5b506101156102e9565b005b348015610122575f80fd5b5061012b6102fb565b6040516101389190610d6b565b60405180910390f35b34801561014c575f80fd5b50610155610310565b6040516101629190610d38565b60405180910390f35b348015610176575f80fd5b5061017f610316565b60405161018c9190610d38565b60405180910390f35b3480156101a0575f80fd5b506101a9610325565b005b3480156101b6575f80fd5b506101d160048036038101906101cc9190610cfe565b610338565b005b3480156101de575f80fd5b506101e7610673565b005b61020360048036038101906101fe9190610cfe565b610685565b005b348015610210575f80fd5b50610219610894565b6040516102269190610dc3565b60405180910390f35b34801561023a575f80fd5b506102436108bb565b60405161025293929190610ddc565b60405180910390f35b348015610266575f80fd5b50610281600480360381019061027c9190610e3b565b610922565b60405161028f929190610e66565b60405180910390f35b3480156102a3575f80fd5b506102be60048036038101906102b99190610e3b565b610961565b005b5f610bb8670de0b6b3a7640000836102d89190610eba565b6102e29190610f28565b9050919050565b6102f16109e5565b6102f9610a6c565b565b5f60025f9054906101000a900460ff16905090565b610bb881565b5f61031f6109e5565b47905090565b61032d6109e5565b6103365f610acd565b565b610340610b8e565b610348610bcf565b5f811161038a576040517f08c379a000000000000000000000000000000000000000000000000000000000815260040161038190610fb2565b60405180910390fd5b8060035f3373ffffffffffffffffffffffffffffffffffffffff1673ffffffffffffffffffffffffffffffffffffffff1681526020019081526020015f205f0154101561040c576040517f08c379a00000000000000000000000000000000000000000000000000000000081526004016104039061101a565b60405180910390fd5b5f610bb8670de0b6b3a7640000836104249190610eba565b61042e9190610f28565b905080471015610473576040517f08c379a000000000000000000000000000000000000000000000000000000000815260040161046a90611082565b60405180910390fd5b8160035f3373ffffffffffffffffffffffffffffffffffffffff1673ffffffffffffffffffffffffffffffffffffffff1681526020019081526020015f205f015f8282546104c191906110a0565b925050819055505f3373ffffffffffffffffffffffffffffffffffffffff16826040516104ed90611100565b5f6040518083038185875af1925050503d805f8114610527576040519150601f19603f3d011682016040523d82523d5f602084013e61052c565b606091505b5050905080610570576040517f08c379a00000000000000000000000000000000000000000000000000000000081526004016105679061115e565b60405180910390fd5b3373ffffffffffffffffffffffffffffffffffffffff167fe38804fdf97c4e7a8f958471f5a57927189cc2f4b91cedbe3a3c553cb7b7e21883856040516105b892919061117c565b60405180910390a23373ffffffffffffffffffffffffffffffffffffffff167f5e00297b9c4f8fef460c4d7123316eeeb08a64a0930d1d9cae0b61b7f663b25460035f3373ffffffffffffffffffffffffffffffffffffffff1673ffffffffffffffffffffffffffffffffffffffff1681526020019081526020015f205f01543373ffffffffffffffffffffffffffffffffffffffff163160405161065e92919061117c565b60405180910390a25050610670610c15565b50565b61067b6109e5565b610683610c1e565b565b61068d610b8e565b610695610bcf565b5f81116106d7576040517f08c379a00000000000000000000000000000000000000000000000000000000081526004016106ce90610fb2565b60405180910390fd5b5f610bb8670de0b6b3a7640000836106ef9190610eba565b6106f99190610f28565b905080341461073d576040517f08c379a0000000000000000000000000000000000000000000000000000000008152600401610734906111ed565b60405180910390fd5b8160035f3373ffffffffffffffffffffffffffffffffffffffff1673ffffffffffffffffffffffffffffffffffffffff1681526020019081526020015f205f015f82825461078b919061120b565b925050819055503373ffffffffffffffffffffffffffffffffffffffff167f974ecaf7452fe5fa1b26dcbe5b66e0569b793155a3ae7e7402e6f4a73fd8bd4234846040516107da92919061117c565b60405180910390a23373ffffffffffffffffffffffffffffffffffffffff167f5e00297b9c4f8fef460c4d7123316eeeb08a64a0930d1d9cae0b61b7f663b25460035f3373ffffffffffffffffffffffffffffffffffffffff1673ffffffffffffffffffffffffffffffffffffffff1681526020019081526020015f205f01543373ffffffffffffffffffffffffffffffffffffffff163160405161088092919061117c565b60405180910390a250610891610c15565b50565b5f805f9054906101000a900473ffffffffffffffffffffffffffffffffffffffff16905090565b5f805f3360035f3373ffffffffffffffffffffffffffffffffffffffff1673ffffffffffffffffffffffffffffffffffffffff1681526020019081526020015f205f01543373ffffffffffffffffffffffffffffffffffffffff1631925092509250909192565b6003602052805f5260405f205f91509050805f015490806001015f9054906101000a900473ffffffffffffffffffffffffffffffffffffffff16905082565b6109696109e5565b5f73ffffffffffffffffffffffffffffffffffffffff168173ffffffffffffffffffffffffffffffffffffffff16036109d9575f6040517f1e4fbdf70000000000000000000000000000000000000000000000000000000081526004016109d09190610dc3565b60405180910390fd5b6109e281610acd565b50565b6109ed610c80565b73ffffffffffffffffffffffffffffffffffffffff16610a0b610894565b73ffffffffffffffffffffffffffffffffffffffff1614610a6a57610a2e610c80565b6040517f118cdaa7000000000000000000000000000000000000000000000000000000008152600401610a619190610dc3565b60405180910390fd5b565b610a74610c87565b5f60025f6101000a81548160ff0219169083151502179055507f5db9ee0a495bf2e6ff9c91a7834c1ba4fdd244a5e8aa4e537bd38aeae4b073aa610ab6610c80565b604051610ac39190610dc3565b60405180910390a1565b5f805f9054906101000a900473ffffffffffffffffffffffffffffffffffffffff169050815f806101000a81548173ffffffffffffffffffffffffffffffffffffffff021916908373ffffffffffffffffffffffffffffffffffffffff1602179055508173ffffffffffffffffffffffffffffffffffffffff168173ffffffffffffffffffffffffffffffffffffffff167f8be0079c531659141344cd1fd0a4f28419497f9722a3daafe3b4186f6b6457e060405160405180910390a35050565b610b966102fb565b15610bcd576040517fd93c066500000000000000000000000000000000000000000000000000000000815260040160405180910390fd5b565b600260015403610c0b576040517f3ee5aeb500000000000000000000000000000000000000000000000000000000815260040160405180910390fd5b6002600181905550565b60018081905550565b610c26610b8e565b600160025f6101000a81548160ff0219169083151502179055507f62e78cea01bee320cd4e420270b5ea74000d11b0c9f74754ebdbfc544b05a258610c69610c80565b604051610c769190610dc3565b60405180910390a1565b5f33905090565b610c8f6102fb565b610cc5576040517f8dfc202b00000000000000000000000000000000000000000000000000000000815260040160405180910390fd5b565b5f80fd5b5f819050919050565b610cdd81610ccb565b8114610ce7575f80fd5b50565b5f81359050610cf881610cd4565b92915050565b5f60208284031215610d1357610d12610cc7565b5b5f610d2084828501610cea565b91505092915050565b610d3281610ccb565b82525050565b5f602082019050610d4b5f830184610d29565b92915050565b5f8115159050919050565b610d6581610d51565b82525050565b5f602082019050610d7e5f830184610d5c565b92915050565b5f73ffffffffffffffffffffffffffffffffffffffff82169050919050565b5f610dad82610d84565b9050919050565b610dbd81610da3565b82525050565b5f602082019050610dd65f830184610db4565b92915050565b5f606082019050610def5f830186610db4565b610dfc6020830185610d29565b610e096040830184610d29565b949350505050565b610e1a81610da3565b8114610e24575f80fd5b50565b5f81359050610e3581610e11565b92915050565b5f60208284031215610e5057610e4f610cc7565b5b5f610e5d84828501610e27565b91505092915050565b5f604082019050610e795f830185610d29565b610e866020830184610db4565b9392505050565b7f4e487b71000000000000000000000000000000000000000000000000000000005f52601160045260245ffd5b5f610ec482610ccb565b9150610ecf83610ccb565b9250828202610edd81610ccb565b91508282048414831517610ef457610ef3610e8d565b5b5092915050565b7f4e487b71000000000000000000000000000000000000000000000000000000005f52601260045260245ffd5b5f610f3282610ccb565b9150610f3d83610ccb565b925082610f4d57610f4c610efb565b5b828204905092915050565b5f82825260208201905092915050565b7f416d6f756e74206d7573742062652067726561746572207468616e20300000005f82015250565b5f610f9c601d83610f58565b9150610fa782610f68565b602082019050919050565b5f6020820190508181035f830152610fc981610f90565b9050919050565b7f496e73756666696369656e7420666961742062616c616e6365000000000000005f82015250565b5f611004601983610f58565b915061100f82610fd0565b602082019050919050565b5f6020820190508181035f83015261103181610ff8565b9050919050565b7f496e73756666696369656e7420636f6e74726163742062616c616e63650000005f82015250565b5f61106c601d83610f58565b915061107782611038565b602082019050919050565b5f6020820190508181035f83015261109981611060565b9050919050565b5f6110aa82610ccb565b91506110b583610ccb565b92508282039050818111156110cd576110cc610e8d565b5b92915050565b5f81905092915050565b50565b5f6110eb5f836110d3565b91506110f6826110dd565b5f82019050919050565b5f61110a826110e0565b9150819050919050565b7f455448207472616e73666572206661696c6564000000000000000000000000005f82015250565b5f611148601383610f58565b915061115382611114565b602082019050919050565b5f6020820190508181035f8301526111758161113c565b9050919050565b5f60408201905061118f5f830185610d29565b61119c6020830184610d29565b9392505050565b7f496e636f72726563742045544820616d6f756e742073656e74000000000000005f82015250565b5f6111d7601983610f58565b91506111e2826111a3565b602082019050919050565b5f6020820190508181035f830152611204816111cb565b9050919050565b5f61121582610ccb565b915061122083610ccb565b925082820190508082111561123857611237610e8d565b5b9291505056fea26469706673582212207d93f11ed501978acb4cf8c64ca2346181b55b0bc4652b9623aa9eb8a809a53464736f6c63430008150033",
  "immutableReferences": {},
  "source": "// SPDX-License-Identifier: MIT\r\npragma solidity ^0.8.0;\r\n\r\nimport \"@openzeppelin/contracts/access/Ownable.sol\";\r\nimport \"@openzeppelin/contracts/utils/ReentrancyGuard.sol\";\r\nimport \"@openzeppelin/contracts/utils/Pausable.sol\";\r\n\r\ncontract CryptoDebitCard is Ownable, ReentrancyGuard, Pausable {\r\n    uint256 public constant ETH_USD_PRICE = 3000; // $3000 USD\r\n\r\n    struct UserAccount {\r\n        uint256 fiatBalance;    // Balance in dollars (USD)\r\n        address userAddress;\r\n    }\r\n\r\n    mapping(address => UserAccount) public users;\r\n\r\n    event BalanceUpdated(address indexed userAddress, uint256 newFiatBalance, uint256 newCryptoBalance);\r\n    event CryptoDeposited(address indexed userAddress, uint256 cryptoAmount, uint256 fiatAmount);\r\n    event CryptoWithdrawn(address indexed userAddress, uint256 cryptoAmount, uint256 fiatAmount);\r\n\r\n    constructor() Ownable(msg.sender) {}\r\n\r\n    function getUserDetails() external view returns (\r\n        address userAddress,\r\n        uint256 fiatBalance,\r\n        uint256 cryptoBalance\r\n    ) {\r\n        return (\r\n            msg.sender,\r\n            users[msg.sender].fiatBalance,\r\n            address(msg.sender).balance\r\n        );\r\n    }\r\n\r\n    function calculateRequiredWei(uint256 _dollarAmount) public pure returns (uint256) {\r\n        return (_dollarAmount * 1e18) / ETH_USD_PRICE;\r\n    }\r\n\r\n    function depositCrypto(uint256 _dollarAmount) external payable whenNotPaused nonReentrant {\r\n        require(_dollarAmount > 0, \"Amount must be greater than 0\");\r\n        \r\n        uint256 requiredWei = (_dollarAmount * 1e18) / ETH_USD_PRICE;\r\n        require(msg.value == requiredWei, \"Incorrect ETH amount sent\");\r\n\r\n        users[msg.sender].fiatBalance += _dollarAmount;\r\n\r\n        emit CryptoDeposited(msg.sender, msg.value, _dollarAmount);\r\n        emit BalanceUpdated(msg.sender, users[msg.sender].fiatBalance, address(msg.sender).balance);\r\n    }\r\n\r\n    function getContractBalance() external view onlyOwner returns (uint256) {\r\n        return address(this).balance;\r\n    }\r\n\r\n    function pause() external onlyOwner {\r\n        _pause();\r\n    }\r\n\r\n    function unpause() external onlyOwner {\r\n        _unpause();\r\n    }\r\n\r\n    function withdrawCrypto(uint256 _dollarAmount) external whenNotPaused nonReentrant {\r\n        require(_dollarAmount > 0, \"Amount must be greater than 0\");\r\n        require(users[msg.sender].fiatBalance >= _dollarAmount, \"Insufficient fiat balance\");\r\n\r\n        // Calculate ETH amount to send\r\n        uint256 weiToSend = (_dollarAmount * 1e18) / ETH_USD_PRICE;\r\n        \r\n        // Check if contract has enough balance\r\n        require(address(this).balance >= weiToSend, \"Insufficient contract balance\");\r\n\r\n        // Update fiat balance before transfer to prevent reentrancy\r\n        users[msg.sender].fiatBalance -= _dollarAmount;\r\n\r\n        // Transfer ETH to user\r\n        (bool success, ) = payable(msg.sender).call{value: weiToSend}(\"\");\r\n        require(success, \"ETH transfer failed\");\r\n\r\n        emit CryptoWithdrawn(msg.sender, weiToSend, _dollarAmount);\r\n        emit BalanceUpdated(msg.sender, users[msg.sender].fiatBalance, address(msg.sender).balance);\r\n    }\r\n}\r\n",
  "sourcePath": "C:\\Users\\havva\\OneDrive\\Desktop\\smartcontract\\contracts\\DebitCard.sol",
  "compiler": {
    "name": "solc",
    "version": "0.8.21+commit.d9974bed.Emscripten.clang"
  },
  "schemaVersion": "3.4.16",
  "updatedAt": "2024-11-21T17:42:05.289Z",
  "networkType": "ethereum",
  "devdoc": {
    "errors": {
      "EnforcedPause()": [
        {
          "details": "The operation failed because the contract is paused."
        }
      ],
      "ExpectedPause()": [
        {
          "details": "The operation failed because the contract is not paused."
        }
      ],
      "OwnableInvalidOwner(address)": [
        {
          "details": "The owner is not a valid owner account. (eg. `address(0)`)"
        }
      ],
      "OwnableUnauthorizedAccount(address)": [
        {
          "details": "The caller account is not authorized to perform an operation."
        }
      ],
      "ReentrancyGuardReentrantCall()": [
        {
          "details": "Unauthorized reentrant call."
        }
      ]
    },
    "events": {
      "Paused(address)": {
        "details": "Emitted when the pause is triggered by `account`."
      },
      "Unpaused(address)": {
        "details": "Emitted when the pause is lifted by `account`."
      }
    },
    "kind": "dev",
    "methods": {
      "owner()": {
        "details": "Returns the address of the current owner."
      },
      "paused()": {
        "details": "Returns true if the contract is paused, and false otherwise."
      },
      "renounceOwnership()": {
        "details": "Leaves the contract without owner. It will not be possible to call `onlyOwner` functions. Can only be called by the current owner. NOTE: Renouncing ownership will leave the contract without an owner, thereby disabling any functionality that is only available to the owner."
      },
      "transferOwnership(address)": {
        "details": "Transfers ownership of the contract to a new account (`newOwner`). Can only be called by the current owner."
      }
    },
    "version": 1
  },
  "userdoc": {
    "kind": "user",
    "methods": {},
    "version": 1
  }
}